{"contracts/verifiers/SMTNonMembershipGroth16Verifier.sol":{"SMTNonMembershipGroth16Verifier":{"abi":[{"inputs":[],"name":"ALPHA_X","outputs":[{"internalType":"uint256","name":"","type":"uint256"}],"stateMutability":"view","type":"function"},{"inputs":[],"name":"ALPHA_Y","outputs":[{"internalType":"uint256","name":"","type":"uint256"}],"stateMutability":"view","type":"function"},{"inputs":[],"name":"BASE_FIELD_SIZE","outputs":[{"internalType":"uint256","name":"","type":"uint256"}],"stateMutability":"view","type":"function"},{"inputs":[],"name":"BETA_X1","outputs":[{"internalType":"uint256","name":"","type":"uint256"}],"stateMutability":"view","type":"function"},{"inputs":[],"name":"BETA_X2","outputs":[{"internalType":"uint256","name":"","type":"uint256"}],"stateMutability":"view","type":"function"},{"inputs":[],"name":"BETA_Y1","outputs":[{"internalType":"uint256","name":"","type":"uint256"}],"stateMutability":"view","type":"function"},{"inputs":[],"name":"BETA_Y2","outputs":[{"internalType":"uint256","name":"","type":"uint256"}],"stateMutability":"view","type":"function"},{"inputs":[],"name":"DELTA_X1","outputs":[{"internalType":"uint256","name":"","type":"uint256"}],"stateMutability":"view","type":"function"},{"inputs":[],"name":"DELTA_X2","outputs":[{"internalType":"uint256","name":"","type":"uint256"}],"stateMutability":"view","type":"function"},{"inputs":[],"name":"DELTA_Y1","outputs":[{"internalType":"uint256","name":"","type":"uint256"}],"stateMutability":"view","type":"function"},{"inputs":[],"name":"DELTA_Y2","outputs":[{"internalType":"uint256","name":"","type":"uint256"}],"stateMutability":"view","type":"function"},{"inputs":[],"name":"GAMMA_X1","outputs":[{"internalType":"uint256","name":"","type":"uint256"}],"stateMutability":"view","type":"function"},{"inputs":[],"name":"GAMMA_X2","outputs":[{"internalType":"uint256","name":"","type":"uint256"}],"stateMutability":"view","type":"function"},{"inputs":[],"name":"GAMMA_Y1","outputs":[{"internalType":"uint256","name":"","type":"uint256"}],"stateMutability":"view","type":"function"},{"inputs":[],"name":"GAMMA_Y2","outputs":[{"internalType":"uint256","name":"","type":"uint256"}],"stateMutability":"view","type":"function"},{"inputs":[],"name":"IC0_X","outputs":[{"internalType":"uint256","name":"","type":"uint256"}],"stateMutability":"view","type":"function"},{"inputs":[],"name":"IC0_Y","outputs":[{"internalType":"uint256","name":"","type":"uint256"}],"stateMutability":"view","type":"function"},{"inputs":[],"name":"IC1_X","outputs":[{"internalType":"uint256","name":"","type":"uint256"}],"stateMutability":"view","type":"function"},{"inputs":[],"name":"IC1_Y","outputs":[{"internalType":"uint256","name":"","type":"uint256"}],"stateMutability":"view","type":"function"},{"inputs":[],"name":"P_TOTAL_SIZE","outputs":[{"internalType":"uint256","name":"","type":"uint256"}],"stateMutability":"view","type":"function"},{"inputs":[],"name":"SCALAR_FIELD_SIZE","outputs":[{"internalType":"uint256","name":"","type":"uint256"}],"stateMutability":"view","type":"function"},{"inputs":[{"internalType":"uint256[2]","name":"pointA_","type":"uint256[2]"},{"internalType":"uint256[2][2]","name":"pointB_","type":"uint256[2][2]"},{"internalType":"uint256[2]","name":"pointC_","type":"uint256[2]"},{"internalType":"uint256[1]","name":"publicSignals_","type":"uint256[1]"}],"name":"verifyProof","outputs":[{"internalType":"bool","name":"verified_","type":"bool"}],"stateMutability":"view","type":"function"}],"evm":{"bytecode":{"linkReferences":{},"object":"6080604052348015600f57600080fd5b50610eec8061001f6000396000f3fe608060405234801561001057600080fd5b50600436106101425760003560e01c8063a6aca976116100b8578063d663b3651161007c578063d663b36514610339578063d70a63cc14610357578063dc05a82214610375578063dd924b4714610393578063dfcf46f0146103b1578063f7a65aae146103cf57610142565b8063a6aca976146102a3578063acb41936146102c1578063b936325c146102df578063cc9c92ae146102fd578063d1fb02a31461031b57610142565b80636a5935a71161010a5780636a5935a7146101ef578063742797c41461020d5780637fdf8fc11461022b578063839a60d014610249578063901660c414610267578063a1978c3c1461028557610142565b80630ddec475146101475780631c4d4406146101655780633a9e6a4d1461018357806343753b4d146101a15780636336ec6c146101d1575b600080fd5b61014f6103ed565b60405161015c9190610b18565b60405180910390f35b61016d610411565b60405161017a9190610b18565b60405180910390f35b61018b610435565b6040516101989190610b18565b60405180910390f35b6101bb60048036038101906101b69190610e17565b610459565b6040516101c89190610e9b565b60405180910390f35b6101d9610895565b6040516101e69190610b18565b60405180910390f35b6101f76108b9565b6040516102049190610b18565b60405180910390f35b6102156108dd565b6040516102229190610b18565b60405180910390f35b610233610901565b6040516102409190610b18565b60405180910390f35b610251610925565b60405161025e9190610b18565b60405180910390f35b61026f610949565b60405161027c9190610b18565b60405180910390f35b61028d61096d565b60405161029a9190610b18565b60405180910390f35b6102ab610991565b6040516102b89190610b18565b60405180910390f35b6102c9610997565b6040516102d69190610b18565b60405180910390f35b6102e76109bb565b6040516102f49190610b18565b60405180910390f35b6103056109df565b6040516103129190610b18565b60405180910390f35b610323610a03565b6040516103309190610b18565b60405180910390f35b610341610a27565b60405161034e9190610b18565b60405180910390f35b61035f610a4b565b60405161036c9190610b18565b60405180910390f35b61037d610a6f565b60405161038a9190610b18565b60405180910390f35b61039b610a93565b6040516103a89190610b18565b60405180910390f35b6103b9610ab7565b6040516103c69190610b18565b60405180910390f35b6103d7610adb565b6040516103e49190610b18565b60405180910390f35b7f30644e72e131a029b85045b68181585d2833e84879b9709143e1f593f000000181565b7f1739c1b1a457a8c7313123d24d2f9192f896b7c63eea05a9d57f06547ad0cec881565b7f090689d0585ff075ec9e99ad690c3395bc4b313370b38ef355acdadcd122975b81565b6000610854565b60007f30644e72e131a029b85045b68181585d2833e84879b9709143e1f593f000000182109050919050565b600082604083015283606083015284608083015260408083016060604085016007611770fa905060003d118116905080156104d75760408260808460066096fa905060003d11811690505b949350505050565b60007f09e9d670bc489c3062749a80e085a4975a5d33c2088c16c0f38522e635426f1586527f1793aded284550459af119a9e9e4f59bcf4905cd480365f24ba7d5f5c271549c602087015261057a60008601517f1af4b2425baf3c8cde9a1bdf1857b2fad992097d53d74612a47515b9eec8c7507f226daea8733833620610e64bfccc417375e0594fce96b55c14dff1f327516b598961048c565b1561084b577f198e9393920d483a7260bfb731fb5d25f1aa493335a9e71297e485b7aef312c260408701527f1800deef121f1e76426a00665e5c4479674322d4f75edadd46debd5cd992f6ed60608701527f090689d0585ff075ec9e99ad690c3395bc4b313370b38ef355acdadcd122975b60808701527f12c85ea5db8c6deb4aab71808dcb408fe3d1e7690c43d37b4ce6cc0166fa7daa60a0870152815160c08701527f30644e72e131a029b85045b68181585d97816a916871ca8d3c208c16d87cfd4760208301517f30644e72e131a029b85045b68181585d97816a916871ca8d3c208c16d87cfd47030660e087015282515161010087015260208351015161012087015260208301515161014087015260208084015101516101608701527f2d4d9aa7e302d9df41749d5507949d05dbea33fbb16c643b22f599a2be6df2e26101808701527f14bedd503c37ceb061d8ec60209fe345ce89830a19230301f076caff004d19266101a08701527f0967032fcbf776d1afc985f88877f182d38480a653f2decaa9794cbc3bf3060c6101c08701527f0e187847ad4c798374d0d6732bf501847dd68bc0e071241e0213bc7fc13db7ab6101e08701527f304cfbd1e08a704a99f5e847d93f8c3caafddec46b7a0d379da69a4d112346a76102008701527f1739c1b1a457a8c7313123d24d2f9192f896b7c63eea05a9d57f06547ad0cec8610220870152835161024087015260208401516102608701527f132cff165635f5b4c4d9397603d3d6bb182749eb377697fed4591d766504b7476102808701527f139e516390416d5431482ed754c0705b84b82436417db9d463b2854e3a996c8c6102a08701527f18654809be874d35fe3a500a088c3571ddf6813724317b7ea354b4f4833655e36102c08701527f028b84fb17ebe8aa339fbae563fc1f30cbec6b01123abbb255d311689be096946102e08701526020866103008860086202c308fa90508551811690505b95945050505050565b6040516103008101604052600191506108706000840151610460565b821691508115191561088c57610889818486888a6104df565b91505b50949350505050565b7f09e9d670bc489c3062749a80e085a4975a5d33c2088c16c0f38522e635426f1581565b7f14bedd503c37ceb061d8ec60209fe345ce89830a19230301f076caff004d192681565b7f1793aded284550459af119a9e9e4f59bcf4905cd480365f24ba7d5f5c271549c81565b7f0e187847ad4c798374d0d6732bf501847dd68bc0e071241e0213bc7fc13db7ab81565b7f30644e72e131a029b85045b68181585d97816a916871ca8d3c208c16d87cfd4781565b7f198e9393920d483a7260bfb731fb5d25f1aa493335a9e71297e485b7aef312c281565b7f1af4b2425baf3c8cde9a1bdf1857b2fad992097d53d74612a47515b9eec8c75081565b61030081565b7f12c85ea5db8c6deb4aab71808dcb408fe3d1e7690c43d37b4ce6cc0166fa7daa81565b7f18654809be874d35fe3a500a088c3571ddf6813724317b7ea354b4f4833655e381565b7f028b84fb17ebe8aa339fbae563fc1f30cbec6b01123abbb255d311689be0969481565b7f2d4d9aa7e302d9df41749d5507949d05dbea33fbb16c643b22f599a2be6df2e281565b7f226daea8733833620610e64bfccc417375e0594fce96b55c14dff1f327516b5981565b7f132cff165635f5b4c4d9397603d3d6bb182749eb377697fed4591d766504b74781565b7f0967032fcbf776d1afc985f88877f182d38480a653f2decaa9794cbc3bf3060c81565b7f304cfbd1e08a704a99f5e847d93f8c3caafddec46b7a0d379da69a4d112346a781565b7f1800deef121f1e76426a00665e5c4479674322d4f75edadd46debd5cd992f6ed81565b7f139e516390416d5431482ed754c0705b84b82436417db9d463b2854e3a996c8c81565b6000819050919050565b610b1281610aff565b82525050565b6000602082019050610b2d6000830184610b09565b92915050565b6000604051905090565b600080fd5b600080fd5b6000601f19601f8301169050919050565b7f4e487b7100000000000000000000000000000000000000000000000000000000600052604160045260246000fd5b610b9082610b47565b810181811067ffffffffffffffff82111715610baf57610bae610b58565b5b80604052505050565b6000610bc2610b33565b9050610bce8282610b87565b919050565b600067ffffffffffffffff821115610bee57610bed610b58565b5b602082029050919050565b600080fd5b610c0781610aff565b8114610c1257600080fd5b50565b600081359050610c2481610bfe565b92915050565b6000610c3d610c3884610bd3565b610bb8565b90508060208402830185811115610c5757610c56610bf9565b5b835b81811015610c805780610c6c8882610c15565b845260208401935050602081019050610c59565b5050509392505050565b600082601f830112610c9f57610c9e610b42565b5b6002610cac848285610c2a565b91505092915050565b600067ffffffffffffffff821115610cd057610ccf610b58565b5b602082029050919050565b6000610cee610ce984610cb5565b610bb8565b90508060408402830185811115610d0857610d07610bf9565b5b835b81811015610d315780610d1d8882610c8a565b845260208401935050604081019050610d0a565b5050509392505050565b600082601f830112610d5057610d4f610b42565b5b6002610d5d848285610cdb565b91505092915050565b600067ffffffffffffffff821115610d8157610d80610b58565b5b602082029050919050565b6000610d9f610d9a84610d66565b610bb8565b90508060208402830185811115610db957610db8610bf9565b5b835b81811015610de25780610dce8882610c15565b845260208401935050602081019050610dbb565b5050509392505050565b600082601f830112610e0157610e00610b42565b5b6001610e0e848285610d8c565b91505092915050565b6000806000806101208587031215610e3257610e31610b3d565b5b6000610e4087828801610c8a565b9450506040610e5187828801610d3b565b93505060c0610e6287828801610c8a565b925050610100610e7487828801610dec565b91505092959194509250565b60008115159050919050565b610e9581610e80565b82525050565b6000602082019050610eb06000830184610e8c565b9291505056fea2646970667358221220c79ec95c90a7d8cce517bd82f71e8479c3363e6615846d2098e9edaa21a4d04464736f6c634300081c0033","opcodes":"PUSH1 0x80 PUSH1 0x40 MSTORE CALLVALUE DUP1 ISZERO PUSH1 0xF JUMPI PUSH1 0x0 DUP1 REVERT JUMPDEST POP PUSH2 0xEEC DUP1 PUSH2 0x1F PUSH1 0x0 CODECOPY PUSH1 0x0 RETURN INVALID PUSH1 0x80 PUSH1 0x40 MSTORE CALLVALUE DUP1 ISZERO PUSH2 0x10 JUMPI PUSH1 0x0 DUP1 REVERT JUMPDEST POP PUSH1 0x4 CALLDATASIZE LT PUSH2 0x142 JUMPI PUSH1 0x0 CALLDATALOAD PUSH1 0xE0 SHR DUP1 PUSH4 0xA6ACA976 GT PUSH2 0xB8 JUMPI DUP1 PUSH4 0xD663B365 GT PUSH2 0x7C JUMPI DUP1 PUSH4 0xD663B365 EQ PUSH2 0x339 JUMPI DUP1 PUSH4 0xD70A63CC EQ PUSH2 0x357 JUMPI DUP1 PUSH4 0xDC05A822 EQ PUSH2 0x375 JUMPI DUP1 PUSH4 0xDD924B47 EQ PUSH2 0x393 JUMPI DUP1 PUSH4 0xDFCF46F0 EQ PUSH2 0x3B1 JUMPI DUP1 PUSH4 0xF7A65AAE EQ PUSH2 0x3CF JUMPI PUSH2 0x142 JUMP JUMPDEST DUP1 PUSH4 0xA6ACA976 EQ PUSH2 0x2A3 JUMPI DUP1 PUSH4 0xACB41936 EQ PUSH2 0x2C1 JUMPI DUP1 PUSH4 0xB936325C EQ PUSH2 0x2DF JUMPI DUP1 PUSH4 0xCC9C92AE EQ PUSH2 0x2FD JUMPI DUP1 PUSH4 0xD1FB02A3 EQ PUSH2 0x31B JUMPI PUSH2 0x142 JUMP JUMPDEST DUP1 PUSH4 0x6A5935A7 GT PUSH2 0x10A JUMPI DUP1 PUSH4 0x6A5935A7 EQ PUSH2 0x1EF JUMPI DUP1 PUSH4 0x742797C4 EQ PUSH2 0x20D JUMPI DUP1 PUSH4 0x7FDF8FC1 EQ PUSH2 0x22B JUMPI DUP1 PUSH4 0x839A60D0 EQ PUSH2 0x249 JUMPI DUP1 PUSH4 0x901660C4 EQ PUSH2 0x267 JUMPI DUP1 PUSH4 0xA1978C3C EQ PUSH2 0x285 JUMPI PUSH2 0x142 JUMP JUMPDEST DUP1 PUSH4 0xDDEC475 EQ PUSH2 0x147 JUMPI DUP1 PUSH4 0x1C4D4406 EQ PUSH2 0x165 JUMPI DUP1 PUSH4 0x3A9E6A4D EQ PUSH2 0x183 JUMPI DUP1 PUSH4 0x43753B4D EQ PUSH2 0x1A1 JUMPI DUP1 PUSH4 0x6336EC6C EQ PUSH2 0x1D1 JUMPI JUMPDEST PUSH1 0x0 DUP1 REVERT JUMPDEST PUSH2 0x14F PUSH2 0x3ED JUMP JUMPDEST PUSH1 0x40 MLOAD PUSH2 0x15C SWAP2 SWAP1 PUSH2 0xB18 JUMP JUMPDEST PUSH1 0x40 MLOAD DUP1 SWAP2 SUB SWAP1 RETURN JUMPDEST PUSH2 0x16D PUSH2 0x411 JUMP JUMPDEST PUSH1 0x40 MLOAD PUSH2 0x17A SWAP2 SWAP1 PUSH2 0xB18 JUMP JUMPDEST PUSH1 0x40 MLOAD DUP1 SWAP2 SUB SWAP1 RETURN JUMPDEST PUSH2 0x18B PUSH2 0x435 JUMP JUMPDEST PUSH1 0x40 MLOAD PUSH2 0x198 SWAP2 SWAP1 PUSH2 0xB18 JUMP JUMPDEST PUSH1 0x40 MLOAD DUP1 SWAP2 SUB SWAP1 RETURN JUMPDEST PUSH2 0x1BB PUSH1 0x4 DUP1 CALLDATASIZE SUB DUP2 ADD SWAP1 PUSH2 0x1B6 SWAP2 SWAP1 PUSH2 0xE17 JUMP JUMPDEST PUSH2 0x459 JUMP JUMPDEST PUSH1 0x40 MLOAD PUSH2 0x1C8 SWAP2 SWAP1 PUSH2 0xE9B JUMP JUMPDEST PUSH1 0x40 MLOAD DUP1 SWAP2 SUB SWAP1 RETURN JUMPDEST PUSH2 0x1D9 PUSH2 0x895 JUMP JUMPDEST PUSH1 0x40 MLOAD PUSH2 0x1E6 SWAP2 SWAP1 PUSH2 0xB18 JUMP JUMPDEST PUSH1 0x40 MLOAD DUP1 SWAP2 SUB SWAP1 RETURN JUMPDEST PUSH2 0x1F7 PUSH2 0x8B9 JUMP JUMPDEST PUSH1 0x40 MLOAD PUSH2 0x204 SWAP2 SWAP1 PUSH2 0xB18 JUMP JUMPDEST PUSH1 0x40 MLOAD DUP1 SWAP2 SUB SWAP1 RETURN JUMPDEST PUSH2 0x215 PUSH2 0x8DD JUMP JUMPDEST PUSH1 0x40 MLOAD PUSH2 0x222 SWAP2 SWAP1 PUSH2 0xB18 JUMP JUMPDEST PUSH1 0x40 MLOAD DUP1 SWAP2 SUB SWAP1 RETURN JUMPDEST PUSH2 0x233 PUSH2 0x901 JUMP JUMPDEST PUSH1 0x40 MLOAD PUSH2 0x240 SWAP2 SWAP1 PUSH2 0xB18 JUMP JUMPDEST PUSH1 0x40 MLOAD DUP1 SWAP2 SUB SWAP1 RETURN JUMPDEST PUSH2 0x251 PUSH2 0x925 JUMP JUMPDEST PUSH1 0x40 MLOAD PUSH2 0x25E SWAP2 SWAP1 PUSH2 0xB18 JUMP JUMPDEST PUSH1 0x40 MLOAD DUP1 SWAP2 SUB SWAP1 RETURN JUMPDEST PUSH2 0x26F PUSH2 0x949 JUMP JUMPDEST PUSH1 0x40 MLOAD PUSH2 0x27C SWAP2 SWAP1 PUSH2 0xB18 JUMP JUMPDEST PUSH1 0x40 MLOAD DUP1 SWAP2 SUB SWAP1 RETURN JUMPDEST PUSH2 0x28D PUSH2 0x96D JUMP JUMPDEST PUSH1 0x40 MLOAD PUSH2 0x29A SWAP2 SWAP1 PUSH2 0xB18 JUMP JUMPDEST PUSH1 0x40 MLOAD DUP1 SWAP2 SUB SWAP1 RETURN JUMPDEST PUSH2 0x2AB PUSH2 0x991 JUMP JUMPDEST PUSH1 0x40 MLOAD PUSH2 0x2B8 SWAP2 SWAP1 PUSH2 0xB18 JUMP JUMPDEST PUSH1 0x40 MLOAD DUP1 SWAP2 SUB SWAP1 RETURN JUMPDEST PUSH2 0x2C9 PUSH2 0x997 JUMP JUMPDEST PUSH1 0x40 MLOAD PUSH2 0x2D6 SWAP2 SWAP1 PUSH2 0xB18 JUMP JUMPDEST PUSH1 0x40 MLOAD DUP1 SWAP2 SUB SWAP1 RETURN JUMPDEST PUSH2 0x2E7 PUSH2 0x9BB JUMP JUMPDEST PUSH1 0x40 MLOAD PUSH2 0x2F4 SWAP2 SWAP1 PUSH2 0xB18 JUMP JUMPDEST PUSH1 0x40 MLOAD DUP1 SWAP2 SUB SWAP1 RETURN JUMPDEST PUSH2 0x305 PUSH2 0x9DF JUMP JUMPDEST PUSH1 0x40 MLOAD PUSH2 0x312 SWAP2 SWAP1 PUSH2 0xB18 JUMP JUMPDEST PUSH1 0x40 MLOAD DUP1 SWAP2 SUB SWAP1 RETURN JUMPDEST PUSH2 0x323 PUSH2 0xA03 JUMP JUMPDEST PUSH1 0x40 MLOAD PUSH2 0x330 SWAP2 SWAP1 PUSH2 0xB18 JUMP JUMPDEST PUSH1 0x40 MLOAD DUP1 SWAP2 SUB SWAP1 RETURN JUMPDEST PUSH2 0x341 PUSH2 0xA27 JUMP JUMPDEST PUSH1 0x40 MLOAD PUSH2 0x34E SWAP2 SWAP1 PUSH2 0xB18 JUMP JUMPDEST PUSH1 0x40 MLOAD DUP1 SWAP2 SUB SWAP1 RETURN JUMPDEST PUSH2 0x35F PUSH2 0xA4B JUMP JUMPDEST PUSH1 0x40 MLOAD PUSH2 0x36C SWAP2 SWAP1 PUSH2 0xB18 JUMP JUMPDEST PUSH1 0x40 MLOAD DUP1 SWAP2 SUB SWAP1 RETURN JUMPDEST PUSH2 0x37D PUSH2 0xA6F JUMP JUMPDEST PUSH1 0x40 MLOAD PUSH2 0x38A SWAP2 SWAP1 PUSH2 0xB18 JUMP JUMPDEST PUSH1 0x40 MLOAD DUP1 SWAP2 SUB SWAP1 RETURN JUMPDEST PUSH2 0x39B PUSH2 0xA93 JUMP JUMPDEST PUSH1 0x40 MLOAD PUSH2 0x3A8 SWAP2 SWAP1 PUSH2 0xB18 JUMP JUMPDEST PUSH1 0x40 MLOAD DUP1 SWAP2 SUB SWAP1 RETURN JUMPDEST PUSH2 0x3B9 PUSH2 0xAB7 JUMP JUMPDEST PUSH1 0x40 MLOAD PUSH2 0x3C6 SWAP2 SWAP1 PUSH2 0xB18 JUMP JUMPDEST PUSH1 0x40 MLOAD DUP1 SWAP2 SUB SWAP1 RETURN JUMPDEST PUSH2 0x3D7 PUSH2 0xADB JUMP JUMPDEST PUSH1 0x40 MLOAD PUSH2 0x3E4 SWAP2 SWAP1 PUSH2 0xB18 JUMP JUMPDEST PUSH1 0x40 MLOAD DUP1 SWAP2 SUB SWAP1 RETURN JUMPDEST PUSH32 0x30644E72E131A029B85045B68181585D2833E84879B9709143E1F593F0000001 DUP2 JUMP JUMPDEST PUSH32 0x1739C1B1A457A8C7313123D24D2F9192F896B7C63EEA05A9D57F06547AD0CEC8 DUP2 JUMP JUMPDEST PUSH32 0x90689D0585FF075EC9E99AD690C3395BC4B313370B38EF355ACDADCD122975B DUP2 JUMP JUMPDEST PUSH1 0x0 PUSH2 0x854 JUMP JUMPDEST PUSH1 0x0 PUSH32 0x30644E72E131A029B85045B68181585D2833E84879B9709143E1F593F0000001 DUP3 LT SWAP1 POP SWAP2 SWAP1 POP JUMP JUMPDEST PUSH1 0x0 DUP3 PUSH1 0x40 DUP4 ADD MSTORE DUP4 PUSH1 0x60 DUP4 ADD MSTORE DUP5 PUSH1 0x80 DUP4 ADD MSTORE PUSH1 0x40 DUP1 DUP4 ADD PUSH1 0x60 PUSH1 0x40 DUP6 ADD PUSH1 0x7 PUSH2 0x1770 STATICCALL SWAP1 POP PUSH1 0x0 RETURNDATASIZE GT DUP2 AND SWAP1 POP DUP1 ISZERO PUSH2 0x4D7 JUMPI PUSH1 0x40 DUP3 PUSH1 0x80 DUP5 PUSH1 0x6 PUSH1 0x96 STATICCALL SWAP1 POP PUSH1 0x0 RETURNDATASIZE GT DUP2 AND SWAP1 POP JUMPDEST SWAP5 SWAP4 POP POP POP POP JUMP JUMPDEST PUSH1 0x0 PUSH32 0x9E9D670BC489C3062749A80E085A4975A5D33C2088C16C0F38522E635426F15 DUP7 MSTORE PUSH32 0x1793ADED284550459AF119A9E9E4F59BCF4905CD480365F24BA7D5F5C271549C PUSH1 0x20 DUP8 ADD MSTORE PUSH2 0x57A PUSH1 0x0 DUP7 ADD MLOAD PUSH32 0x1AF4B2425BAF3C8CDE9A1BDF1857B2FAD992097D53D74612A47515B9EEC8C750 PUSH32 0x226DAEA8733833620610E64BFCCC417375E0594FCE96B55C14DFF1F327516B59 DUP10 PUSH2 0x48C JUMP JUMPDEST ISZERO PUSH2 0x84B JUMPI PUSH32 0x198E9393920D483A7260BFB731FB5D25F1AA493335A9E71297E485B7AEF312C2 PUSH1 0x40 DUP8 ADD MSTORE PUSH32 0x1800DEEF121F1E76426A00665E5C4479674322D4F75EDADD46DEBD5CD992F6ED PUSH1 0x60 DUP8 ADD MSTORE PUSH32 0x90689D0585FF075EC9E99AD690C3395BC4B313370B38EF355ACDADCD122975B PUSH1 0x80 DUP8 ADD MSTORE PUSH32 0x12C85EA5DB8C6DEB4AAB71808DCB408FE3D1E7690C43D37B4CE6CC0166FA7DAA PUSH1 0xA0 DUP8 ADD MSTORE DUP2 MLOAD PUSH1 0xC0 DUP8 ADD MSTORE PUSH32 0x30644E72E131A029B85045B68181585D97816A916871CA8D3C208C16D87CFD47 PUSH1 0x20 DUP4 ADD MLOAD PUSH32 0x30644E72E131A029B85045B68181585D97816A916871CA8D3C208C16D87CFD47 SUB MOD PUSH1 0xE0 DUP8 ADD MSTORE DUP3 MLOAD MLOAD PUSH2 0x100 DUP8 ADD MSTORE PUSH1 0x20 DUP4 MLOAD ADD MLOAD PUSH2 0x120 DUP8 ADD MSTORE PUSH1 0x20 DUP4 ADD MLOAD MLOAD PUSH2 0x140 DUP8 ADD MSTORE PUSH1 0x20 DUP1 DUP5 ADD MLOAD ADD MLOAD PUSH2 0x160 DUP8 ADD MSTORE PUSH32 0x2D4D9AA7E302D9DF41749D5507949D05DBEA33FBB16C643B22F599A2BE6DF2E2 PUSH2 0x180 DUP8 ADD MSTORE PUSH32 0x14BEDD503C37CEB061D8EC60209FE345CE89830A19230301F076CAFF004D1926 PUSH2 0x1A0 DUP8 ADD MSTORE PUSH32 0x967032FCBF776D1AFC985F88877F182D38480A653F2DECAA9794CBC3BF3060C PUSH2 0x1C0 DUP8 ADD MSTORE PUSH32 0xE187847AD4C798374D0D6732BF501847DD68BC0E071241E0213BC7FC13DB7AB PUSH2 0x1E0 DUP8 ADD MSTORE PUSH32 0x304CFBD1E08A704A99F5E847D93F8C3CAAFDDEC46B7A0D379DA69A4D112346A7 PUSH2 0x200 DUP8 ADD MSTORE PUSH32 0x1739C1B1A457A8C7313123D24D2F9192F896B7C63EEA05A9D57F06547AD0CEC8 PUSH2 0x220 DUP8 ADD MSTORE DUP4 MLOAD PUSH2 0x240 DUP8 ADD MSTORE PUSH1 0x20 DUP5 ADD MLOAD PUSH2 0x260 DUP8 ADD MSTORE PUSH32 0x132CFF165635F5B4C4D9397603D3D6BB182749EB377697FED4591D766504B747 PUSH2 0x280 DUP8 ADD MSTORE PUSH32 0x139E516390416D5431482ED754C0705B84B82436417DB9D463B2854E3A996C8C PUSH2 0x2A0 DUP8 ADD MSTORE PUSH32 0x18654809BE874D35FE3A500A088C3571DDF6813724317B7EA354B4F4833655E3 PUSH2 0x2C0 DUP8 ADD MSTORE PUSH32 0x28B84FB17EBE8AA339FBAE563FC1F30CBEC6B01123ABBB255D311689BE09694 PUSH2 0x2E0 DUP8 ADD MSTORE PUSH1 0x20 DUP7 PUSH2 0x300 DUP9 PUSH1 0x8 PUSH3 0x2C308 STATICCALL SWAP1 POP DUP6 MLOAD DUP2 AND SWAP1 POP JUMPDEST SWAP6 SWAP5 POP POP POP POP POP JUMP JUMPDEST PUSH1 0x40 MLOAD PUSH2 0x300 DUP2 ADD PUSH1 0x40 MSTORE PUSH1 0x1 SWAP2 POP PUSH2 0x870 PUSH1 0x0 DUP5 ADD MLOAD PUSH2 0x460 JUMP JUMPDEST DUP3 AND SWAP2 POP DUP2 ISZERO NOT ISZERO PUSH2 0x88C JUMPI PUSH2 0x889 DUP2 DUP5 DUP7 DUP9 DUP11 PUSH2 0x4DF JUMP JUMPDEST SWAP2 POP JUMPDEST POP SWAP5 SWAP4 POP POP POP POP JUMP JUMPDEST PUSH32 0x9E9D670BC489C3062749A80E085A4975A5D33C2088C16C0F38522E635426F15 DUP2 JUMP JUMPDEST PUSH32 0x14BEDD503C37CEB061D8EC60209FE345CE89830A19230301F076CAFF004D1926 DUP2 JUMP JUMPDEST PUSH32 0x1793ADED284550459AF119A9E9E4F59BCF4905CD480365F24BA7D5F5C271549C DUP2 JUMP JUMPDEST PUSH32 0xE187847AD4C798374D0D6732BF501847DD68BC0E071241E0213BC7FC13DB7AB DUP2 JUMP JUMPDEST PUSH32 0x30644E72E131A029B85045B68181585D97816A916871CA8D3C208C16D87CFD47 DUP2 JUMP JUMPDEST PUSH32 0x198E9393920D483A7260BFB731FB5D25F1AA493335A9E71297E485B7AEF312C2 DUP2 JUMP JUMPDEST PUSH32 0x1AF4B2425BAF3C8CDE9A1BDF1857B2FAD992097D53D74612A47515B9EEC8C750 DUP2 JUMP JUMPDEST PUSH2 0x300 DUP2 JUMP JUMPDEST PUSH32 0x12C85EA5DB8C6DEB4AAB71808DCB408FE3D1E7690C43D37B4CE6CC0166FA7DAA DUP2 JUMP JUMPDEST PUSH32 0x18654809BE874D35FE3A500A088C3571DDF6813724317B7EA354B4F4833655E3 DUP2 JUMP JUMPDEST PUSH32 0x28B84FB17EBE8AA339FBAE563FC1F30CBEC6B01123ABBB255D311689BE09694 DUP2 JUMP JUMPDEST PUSH32 0x2D4D9AA7E302D9DF41749D5507949D05DBEA33FBB16C643B22F599A2BE6DF2E2 DUP2 JUMP JUMPDEST PUSH32 0x226DAEA8733833620610E64BFCCC417375E0594FCE96B55C14DFF1F327516B59 DUP2 JUMP JUMPDEST PUSH32 0x132CFF165635F5B4C4D9397603D3D6BB182749EB377697FED4591D766504B747 DUP2 JUMP JUMPDEST PUSH32 0x967032FCBF776D1AFC985F88877F182D38480A653F2DECAA9794CBC3BF3060C DUP2 JUMP JUMPDEST PUSH32 0x304CFBD1E08A704A99F5E847D93F8C3CAAFDDEC46B7A0D379DA69A4D112346A7 DUP2 JUMP JUMPDEST PUSH32 0x1800DEEF121F1E76426A00665E5C4479674322D4F75EDADD46DEBD5CD992F6ED DUP2 JUMP JUMPDEST PUSH32 0x139E516390416D5431482ED754C0705B84B82436417DB9D463B2854E3A996C8C DUP2 JUMP JUMPDEST PUSH1 0x0 DUP2 SWAP1 POP SWAP2 SWAP1 POP JUMP JUMPDEST PUSH2 0xB12 DUP2 PUSH2 0xAFF JUMP JUMPDEST DUP3 MSTORE POP POP JUMP JUMPDEST PUSH1 0x0 PUSH1 0x20 DUP3 ADD SWAP1 POP PUSH2 0xB2D PUSH1 0x0 DUP4 ADD DUP5 PUSH2 0xB09 JUMP JUMPDEST SWAP3 SWAP2 POP POP JUMP JUMPDEST PUSH1 0x0 PUSH1 0x40 MLOAD SWAP1 POP SWAP1 JUMP JUMPDEST PUSH1 0x0 DUP1 REVERT JUMPDEST PUSH1 0x0 DUP1 REVERT JUMPDEST PUSH1 0x0 PUSH1 0x1F NOT PUSH1 0x1F DUP4 ADD AND SWAP1 POP SWAP2 SWAP1 POP JUMP JUMPDEST PUSH32 0x4E487B7100000000000000000000000000000000000000000000000000000000 PUSH1 0x0 MSTORE PUSH1 0x41 PUSH1 0x4 MSTORE PUSH1 0x24 PUSH1 0x0 REVERT JUMPDEST PUSH2 0xB90 DUP3 PUSH2 0xB47 JUMP JUMPDEST DUP2 ADD DUP2 DUP2 LT PUSH8 0xFFFFFFFFFFFFFFFF DUP3 GT OR ISZERO PUSH2 0xBAF JUMPI PUSH2 0xBAE PUSH2 0xB58 JUMP JUMPDEST JUMPDEST DUP1 PUSH1 0x40 MSTORE POP POP POP JUMP JUMPDEST PUSH1 0x0 PUSH2 0xBC2 PUSH2 0xB33 JUMP JUMPDEST SWAP1 POP PUSH2 0xBCE DUP3 DUP3 PUSH2 0xB87 JUMP JUMPDEST SWAP2 SWAP1 POP JUMP JUMPDEST PUSH1 0x0 PUSH8 0xFFFFFFFFFFFFFFFF DUP3 GT ISZERO PUSH2 0xBEE JUMPI PUSH2 0xBED PUSH2 0xB58 JUMP JUMPDEST JUMPDEST PUSH1 0x20 DUP3 MUL SWAP1 POP SWAP2 SWAP1 POP JUMP JUMPDEST PUSH1 0x0 DUP1 REVERT JUMPDEST PUSH2 0xC07 DUP2 PUSH2 0xAFF JUMP JUMPDEST DUP2 EQ PUSH2 0xC12 JUMPI PUSH1 0x0 DUP1 REVERT JUMPDEST POP JUMP JUMPDEST PUSH1 0x0 DUP2 CALLDATALOAD SWAP1 POP PUSH2 0xC24 DUP2 PUSH2 0xBFE JUMP JUMPDEST SWAP3 SWAP2 POP POP JUMP JUMPDEST PUSH1 0x0 PUSH2 0xC3D PUSH2 0xC38 DUP5 PUSH2 0xBD3 JUMP JUMPDEST PUSH2 0xBB8 JUMP JUMPDEST SWAP1 POP DUP1 PUSH1 0x20 DUP5 MUL DUP4 ADD DUP6 DUP2 GT ISZERO PUSH2 0xC57 JUMPI PUSH2 0xC56 PUSH2 0xBF9 JUMP JUMPDEST JUMPDEST DUP4 JUMPDEST DUP2 DUP2 LT ISZERO PUSH2 0xC80 JUMPI DUP1 PUSH2 0xC6C DUP9 DUP3 PUSH2 0xC15 JUMP JUMPDEST DUP5 MSTORE PUSH1 0x20 DUP5 ADD SWAP4 POP POP PUSH1 0x20 DUP2 ADD SWAP1 POP PUSH2 0xC59 JUMP JUMPDEST POP POP POP SWAP4 SWAP3 POP POP POP JUMP JUMPDEST PUSH1 0x0 DUP3 PUSH1 0x1F DUP4 ADD SLT PUSH2 0xC9F JUMPI PUSH2 0xC9E PUSH2 0xB42 JUMP JUMPDEST JUMPDEST PUSH1 0x2 PUSH2 0xCAC DUP5 DUP3 DUP6 PUSH2 0xC2A JUMP JUMPDEST SWAP2 POP POP SWAP3 SWAP2 POP POP JUMP JUMPDEST PUSH1 0x0 PUSH8 0xFFFFFFFFFFFFFFFF DUP3 GT ISZERO PUSH2 0xCD0 JUMPI PUSH2 0xCCF PUSH2 0xB58 JUMP JUMPDEST JUMPDEST PUSH1 0x20 DUP3 MUL SWAP1 POP SWAP2 SWAP1 POP JUMP JUMPDEST PUSH1 0x0 PUSH2 0xCEE PUSH2 0xCE9 DUP5 PUSH2 0xCB5 JUMP JUMPDEST PUSH2 0xBB8 JUMP JUMPDEST SWAP1 POP DUP1 PUSH1 0x40 DUP5 MUL DUP4 ADD DUP6 DUP2 GT ISZERO PUSH2 0xD08 JUMPI PUSH2 0xD07 PUSH2 0xBF9 JUMP JUMPDEST JUMPDEST DUP4 JUMPDEST DUP2 DUP2 LT ISZERO PUSH2 0xD31 JUMPI DUP1 PUSH2 0xD1D DUP9 DUP3 PUSH2 0xC8A JUMP JUMPDEST DUP5 MSTORE PUSH1 0x20 DUP5 ADD SWAP4 POP POP PUSH1 0x40 DUP2 ADD SWAP1 POP PUSH2 0xD0A JUMP JUMPDEST POP POP POP SWAP4 SWAP3 POP POP POP JUMP JUMPDEST PUSH1 0x0 DUP3 PUSH1 0x1F DUP4 ADD SLT PUSH2 0xD50 JUMPI PUSH2 0xD4F PUSH2 0xB42 JUMP JUMPDEST JUMPDEST PUSH1 0x2 PUSH2 0xD5D DUP5 DUP3 DUP6 PUSH2 0xCDB JUMP JUMPDEST SWAP2 POP POP SWAP3 SWAP2 POP POP JUMP JUMPDEST PUSH1 0x0 PUSH8 0xFFFFFFFFFFFFFFFF DUP3 GT ISZERO PUSH2 0xD81 JUMPI PUSH2 0xD80 PUSH2 0xB58 JUMP JUMPDEST JUMPDEST PUSH1 0x20 DUP3 MUL SWAP1 POP SWAP2 SWAP1 POP JUMP JUMPDEST PUSH1 0x0 PUSH2 0xD9F PUSH2 0xD9A DUP5 PUSH2 0xD66 JUMP JUMPDEST PUSH2 0xBB8 JUMP JUMPDEST SWAP1 POP DUP1 PUSH1 0x20 DUP5 MUL DUP4 ADD DUP6 DUP2 GT ISZERO PUSH2 0xDB9 JUMPI PUSH2 0xDB8 PUSH2 0xBF9 JUMP JUMPDEST JUMPDEST DUP4 JUMPDEST DUP2 DUP2 LT ISZERO PUSH2 0xDE2 JUMPI DUP1 PUSH2 0xDCE DUP9 DUP3 PUSH2 0xC15 JUMP JUMPDEST DUP5 MSTORE PUSH1 0x20 DUP5 ADD SWAP4 POP POP PUSH1 0x20 DUP2 ADD SWAP1 POP PUSH2 0xDBB JUMP JUMPDEST POP POP POP SWAP4 SWAP3 POP POP POP JUMP JUMPDEST PUSH1 0x0 DUP3 PUSH1 0x1F DUP4 ADD SLT PUSH2 0xE01 JUMPI PUSH2 0xE00 PUSH2 0xB42 JUMP JUMPDEST JUMPDEST PUSH1 0x1 PUSH2 0xE0E DUP5 DUP3 DUP6 PUSH2 0xD8C JUMP JUMPDEST SWAP2 POP POP SWAP3 SWAP2 POP POP JUMP JUMPDEST PUSH1 0x0 DUP1 PUSH1 0x0 DUP1 PUSH2 0x120 DUP6 DUP8 SUB SLT ISZERO PUSH2 0xE32 JUMPI PUSH2 0xE31 PUSH2 0xB3D JUMP JUMPDEST JUMPDEST PUSH1 0x0 PUSH2 0xE40 DUP8 DUP3 DUP9 ADD PUSH2 0xC8A JUMP JUMPDEST SWAP5 POP POP PUSH1 0x40 PUSH2 0xE51 DUP8 DUP3 DUP9 ADD PUSH2 0xD3B JUMP JUMPDEST SWAP4 POP POP PUSH1 0xC0 PUSH2 0xE62 DUP8 DUP3 DUP9 ADD PUSH2 0xC8A JUMP JUMPDEST SWAP3 POP POP PUSH2 0x100 PUSH2 0xE74 DUP8 DUP3 DUP9 ADD PUSH2 0xDEC JUMP JUMPDEST SWAP2 POP POP SWAP3 SWAP6 SWAP2 SWAP5 POP SWAP3 POP JUMP JUMPDEST PUSH1 0x0 DUP2 ISZERO ISZERO SWAP1 POP SWAP2 SWAP1 POP JUMP JUMPDEST PUSH2 0xE95 DUP2 PUSH2 0xE80 JUMP JUMPDEST DUP3 MSTORE POP POP JUMP JUMPDEST PUSH1 0x0 PUSH1 0x20 DUP3 ADD SWAP1 POP PUSH2 0xEB0 PUSH1 0x0 DUP4 ADD DUP5 PUSH2 0xE8C JUMP JUMPDEST SWAP3 SWAP2 POP POP JUMP INVALID LOG2 PUSH5 0x6970667358 0x22 SLT KECCAK256 0xC7 SWAP15 0xC9 TLOAD SWAP1 0xA7 0xD8 0xCC 0xE5 OR 0xBD DUP3 0xF7 0x1E DUP5 PUSH26 0xC3363E6615846D2098E9EDAA21A4D04464736F6C634300081C00 CALLER "},"methodIdentifiers":{"ALPHA_X()":"d1fb02a3","ALPHA_Y()":"6a5935a7","BASE_FIELD_SIZE()":"839a60d0","BETA_X1()":"dc05a822","BETA_X2()":"7fdf8fc1","BETA_Y1()":"dd924b47","BETA_Y2()":"1c4d4406","DELTA_X1()":"d70a63cc","DELTA_X2()":"f7a65aae","DELTA_Y1()":"b936325c","DELTA_Y2()":"cc9c92ae","GAMMA_X1()":"901660c4","GAMMA_X2()":"dfcf46f0","GAMMA_Y1()":"3a9e6a4d","GAMMA_Y2()":"acb41936","IC0_X()":"6336ec6c","IC0_Y()":"742797c4","IC1_X()":"d663b365","IC1_Y()":"a1978c3c","P_TOTAL_SIZE()":"a6aca976","SCALAR_FIELD_SIZE()":"0ddec475","verifyProof(uint256[2],uint256[2][2],uint256[2],uint256[1])":"43753b4d"}}}}}