{
  "_format": "hh-sol-artifact-1",
  "contractName": "SMTNonMembershipGroth16Verifier",
  "sourceName": "contracts/verifiers/SMTNonMembershipGroth16Verifier.sol",
  "abi": [
    {
      "inputs": [],
      "name": "ALPHA_X",
      "outputs": [
        {
          "internalType": "uint256",
          "name": "",
          "type": "uint256"
        }
      ],
      "stateMutability": "view",
      "type": "function"
    },
    {
      "inputs": [],
      "name": "ALPHA_Y",
      "outputs": [
        {
          "internalType": "uint256",
          "name": "",
          "type": "uint256"
        }
      ],
      "stateMutability": "view",
      "type": "function"
    },
    {
      "inputs": [],
      "name": "BASE_FIELD_SIZE",
      "outputs": [
        {
          "internalType": "uint256",
          "name": "",
          "type": "uint256"
        }
      ],
      "stateMutability": "view",
      "type": "function"
    },
    {
      "inputs": [],
      "name": "BETA_X1",
      "outputs": [
        {
          "internalType": "uint256",
          "name": "",
          "type": "uint256"
        }
      ],
      "stateMutability": "view",
      "type": "function"
    },
    {
      "inputs": [],
      "name": "BETA_X2",
      "outputs": [
        {
          "internalType": "uint256",
          "name": "",
          "type": "uint256"
        }
      ],
      "stateMutability": "view",
      "type": "function"
    },
    {
      "inputs": [],
      "name": "BETA_Y1",
      "outputs": [
        {
          "internalType": "uint256",
          "name": "",
          "type": "uint256"
        }
      ],
      "stateMutability": "view",
      "type": "function"
    },
    {
      "inputs": [],
      "name": "BETA_Y2",
      "outputs": [
        {
          "internalType": "uint256",
          "name": "",
          "type": "uint256"
        }
      ],
      "stateMutability": "view",
      "type": "function"
    },
    {
      "inputs": [],
      "name": "DELTA_X1",
      "outputs": [
        {
          "internalType": "uint256",
          "name": "",
          "type": "uint256"
        }
      ],
      "stateMutability": "view",
      "type": "function"
    },
    {
      "inputs": [],
      "name": "DELTA_X2",
      "outputs": [
        {
          "internalType": "uint256",
          "name": "",
          "type": "uint256"
        }
      ],
      "stateMutability": "view",
      "type": "function"
    },
    {
      "inputs": [],
      "name": "DELTA_Y1",
      "outputs": [
        {
          "internalType": "uint256",
          "name": "",
          "type": "uint256"
        }
      ],
      "stateMutability": "view",
      "type": "function"
    },
    {
      "inputs": [],
      "name": "DELTA_Y2",
      "outputs": [
        {
          "internalType": "uint256",
          "name": "",
          "type": "uint256"
        }
      ],
      "stateMutability": "view",
      "type": "function"
    },
    {
      "inputs": [],
      "name": "GAMMA_X1",
      "outputs": [
        {
          "internalType": "uint256",
          "name": "",
          "type": "uint256"
        }
      ],
      "stateMutability": "view",
      "type": "function"
    },
    {
      "inputs": [],
      "name": "GAMMA_X2",
      "outputs": [
        {
          "internalType": "uint256",
          "name": "",
          "type": "uint256"
        }
      ],
      "stateMutability": "view",
      "type": "function"
    },
    {
      "inputs": [],
      "name": "GAMMA_Y1",
      "outputs": [
        {
          "internalType": "uint256",
          "name": "",
          "type": "uint256"
        }
      ],
      "stateMutability": "view",
      "type": "function"
    },
    {
      "inputs": [],
      "name": "GAMMA_Y2",
      "outputs": [
        {
          "internalType": "uint256",
          "name": "",
          "type": "uint256"
        }
      ],
      "stateMutability": "view",
      "type": "function"
    },
    {
      "inputs": [],
      "name": "IC0_X",
      "outputs": [
        {
          "internalType": "uint256",
          "name": "",
          "type": "uint256"
        }
      ],
      "stateMutability": "view",
      "type": "function"
    },
    {
      "inputs": [],
      "name": "IC0_Y",
      "outputs": [
        {
          "internalType": "uint256",
          "name": "",
          "type": "uint256"
        }
      ],
      "stateMutability": "view",
      "type": "function"
    },
    {
      "inputs": [],
      "name": "IC1_X",
      "outputs": [
        {
          "internalType": "uint256",
          "name": "",
          "type": "uint256"
        }
      ],
      "stateMutability": "view",
      "type": "function"
    },
    {
      "inputs": [],
      "name": "IC1_Y",
      "outputs": [
        {
          "internalType": "uint256",
          "name": "",
          "type": "uint256"
        }
      ],
      "stateMutability": "view",
      "type": "function"
    },
    {
      "inputs": [],
      "name": "P_TOTAL_SIZE",
      "outputs": [
        {
          "internalType": "uint256",
          "name": "",
          "type": "uint256"
        }
      ],
      "stateMutability": "view",
      "type": "function"
    },
    {
      "inputs": [],
      "name": "SCALAR_FIELD_SIZE",
      "outputs": [
        {
          "internalType": "uint256",
          "name": "",
          "type": "uint256"
        }
      ],
      "stateMutability": "view",
      "type": "function"
    },
    {
      "inputs": [
        {
          "internalType": "uint256[2]",
          "name": "pointA_",
          "type": "uint256[2]"
        },
        {
          "internalType": "uint256[2][2]",
          "name": "pointB_",
          "type": "uint256[2][2]"
        },
        {
          "internalType": "uint256[2]",
          "name": "pointC_",
          "type": "uint256[2]"
        },
        {
          "internalType": "uint256[1]",
          "name": "publicSignals_",
          "type": "uint256[1]"
        }
      ],
      "name": "verifyProof",
      "outputs": [
        {
          "internalType": "bool",
          "name": "verified_",
          "type": "bool"
        }
      ],
      "stateMutability": "view",
      "type": "function"
    }
  ],
  "bytecode": "0x6080604052348015600f57600080fd5b50610eec8061001f6000396000f3fe608060405234801561001057600080fd5b50600436106101425760003560e01c8063a6aca976116100b8578063d663b3651161007c578063d663b36514610339578063d70a63cc14610357578063dc05a82214610375578063dd924b4714610393578063dfcf46f0146103b1578063f7a65aae146103cf57610142565b8063a6aca976146102a3578063acb41936146102c1578063b936325c146102df578063cc9c92ae146102fd578063d1fb02a31461031b57610142565b80636a5935a71161010a5780636a5935a7146101ef578063742797c41461020d5780637fdf8fc11461022b578063839a60d014610249578063901660c414610267578063a1978c3c1461028557610142565b80630ddec475146101475780631c4d4406146101655780633a9e6a4d1461018357806343753b4d146101a15780636336ec6c146101d1575b600080fd5b61014f6103ed565b60405161015c9190610b18565b60405180910390f35b61016d610411565b60405161017a9190610b18565b60405180910390f35b61018b610435565b6040516101989190610b18565b60405180910390f35b6101bb60048036038101906101b69190610e17565b610459565b6040516101c89190610e9b565b60405180910390f35b6101d9610895565b6040516101e69190610b18565b60405180910390f35b6101f76108b9565b6040516102049190610b18565b60405180910390f35b6102156108dd565b6040516102229190610b18565b60405180910390f35b610233610901565b6040516102409190610b18565b60405180910390f35b610251610925565b60405161025e9190610b18565b60405180910390f35b61026f610949565b60405161027c9190610b18565b60405180910390f35b61028d61096d565b60405161029a9190610b18565b60405180910390f35b6102ab610991565b6040516102b89190610b18565b60405180910390f35b6102c9610997565b6040516102d69190610b18565b60405180910390f35b6102e76109bb565b6040516102f49190610b18565b60405180910390f35b6103056109df565b6040516103129190610b18565b60405180910390f35b610323610a03565b6040516103309190610b18565b60405180910390f35b610341610a27565b60405161034e9190610b18565b60405180910390f35b61035f610a4b565b60405161036c9190610b18565b60405180910390f35b61037d610a6f565b60405161038a9190610b18565b60405180910390f35b61039b610a93565b6040516103a89190610b18565b60405180910390f35b6103b9610ab7565b6040516103c69190610b18565b60405180910390f35b6103d7610adb565b6040516103e49190610b18565b60405180910390f35b7f30644e72e131a029b85045b68181585d2833e84879b9709143e1f593f000000181565b7f1739c1b1a457a8c7313123d24d2f9192f896b7c63eea05a9d57f06547ad0cec881565b7f090689d0585ff075ec9e99ad690c3395bc4b313370b38ef355acdadcd122975b81565b6000610854565b60007f30644e72e131a029b85045b68181585d2833e84879b9709143e1f593f000000182109050919050565b600082604083015283606083015284608083015260408083016060604085016007611770fa905060003d118116905080156104d75760408260808460066096fa905060003d11811690505b949350505050565b60007f09e9d670bc489c3062749a80e085a4975a5d33c2088c16c0f38522e635426f1586527f1793aded284550459af119a9e9e4f59bcf4905cd480365f24ba7d5f5c271549c602087015261057a60008601517f1af4b2425baf3c8cde9a1bdf1857b2fad992097d53d74612a47515b9eec8c7507f226daea8733833620610e64bfccc417375e0594fce96b55c14dff1f327516b598961048c565b1561084b577f198e9393920d483a7260bfb731fb5d25f1aa493335a9e71297e485b7aef312c260408701527f1800deef121f1e76426a00665e5c4479674322d4f75edadd46debd5cd992f6ed60608701527f090689d0585ff075ec9e99ad690c3395bc4b313370b38ef355acdadcd122975b60808701527f12c85ea5db8c6deb4aab71808dcb408fe3d1e7690c43d37b4ce6cc0166fa7daa60a0870152815160c08701527f30644e72e131a029b85045b68181585d97816a916871ca8d3c208c16d87cfd4760208301517f30644e72e131a029b85045b68181585d97816a916871ca8d3c208c16d87cfd47030660e087015282515161010087015260208351015161012087015260208301515161014087015260208084015101516101608701527f2d4d9aa7e302d9df41749d5507949d05dbea33fbb16c643b22f599a2be6df2e26101808701527f14bedd503c37ceb061d8ec60209fe345ce89830a19230301f076caff004d19266101a08701527f0967032fcbf776d1afc985f88877f182d38480a653f2decaa9794cbc3bf3060c6101c08701527f0e187847ad4c798374d0d6732bf501847dd68bc0e071241e0213bc7fc13db7ab6101e08701527f304cfbd1e08a704a99f5e847d93f8c3caafddec46b7a0d379da69a4d112346a76102008701527f1739c1b1a457a8c7313123d24d2f9192f896b7c63eea05a9d57f06547ad0cec8610220870152835161024087015260208401516102608701527f132cff165635f5b4c4d9397603d3d6bb182749eb377697fed4591d766504b7476102808701527f139e516390416d5431482ed754c0705b84b82436417db9d463b2854e3a996c8c6102a08701527f18654809be874d35fe3a500a088c3571ddf6813724317b7ea354b4f4833655e36102c08701527f028b84fb17ebe8aa339fbae563fc1f30cbec6b01123abbb255d311689be096946102e08701526020866103008860086202c308fa90508551811690505b95945050505050565b6040516103008101604052600191506108706000840151610460565b821691508115191561088c57610889818486888a6104df565b91505b50949350505050565b7f09e9d670bc489c3062749a80e085a4975a5d33c2088c16c0f38522e635426f1581565b7f14bedd503c37ceb061d8ec60209fe345ce89830a19230301f076caff004d192681565b7f1793aded284550459af119a9e9e4f59bcf4905cd480365f24ba7d5f5c271549c81565b7f0e187847ad4c798374d0d6732bf501847dd68bc0e071241e0213bc7fc13db7ab81565b7f30644e72e131a029b85045b68181585d97816a916871ca8d3c208c16d87cfd4781565b7f198e9393920d483a7260bfb731fb5d25f1aa493335a9e71297e485b7aef312c281565b7f1af4b2425baf3c8cde9a1bdf1857b2fad992097d53d74612a47515b9eec8c75081565b61030081565b7f12c85ea5db8c6deb4aab71808dcb408fe3d1e7690c43d37b4ce6cc0166fa7daa81565b7f18654809be874d35fe3a500a088c3571ddf6813724317b7ea354b4f4833655e381565b7f028b84fb17ebe8aa339fbae563fc1f30cbec6b01123abbb255d311689be0969481565b7f2d4d9aa7e302d9df41749d5507949d05dbea33fbb16c643b22f599a2be6df2e281565b7f226daea8733833620610e64bfccc417375e0594fce96b55c14dff1f327516b5981565b7f132cff165635f5b4c4d9397603d3d6bb182749eb377697fed4591d766504b74781565b7f0967032fcbf776d1afc985f88877f182d38480a653f2decaa9794cbc3bf3060c81565b7f304cfbd1e08a704a99f5e847d93f8c3caafddec46b7a0d379da69a4d112346a781565b7f1800deef121f1e76426a00665e5c4479674322d4f75edadd46debd5cd992f6ed81565b7f139e516390416d5431482ed754c0705b84b82436417db9d463b2854e3a996c8c81565b6000819050919050565b610b1281610aff565b82525050565b6000602082019050610b2d6000830184610b09565b92915050565b6000604051905090565b600080fd5b600080fd5b6000601f19601f8301169050919050565b7f4e487b7100000000000000000000000000000000000000000000000000000000600052604160045260246000fd5b610b9082610b47565b810181811067ffffffffffffffff82111715610baf57610bae610b58565b5b80604052505050565b6000610bc2610b33565b9050610bce8282610b87565b919050565b600067ffffffffffffffff821115610bee57610bed610b58565b5b602082029050919050565b600080fd5b610c0781610aff565b8114610c1257600080fd5b50565b600081359050610c2481610bfe565b92915050565b6000610c3d610c3884610bd3565b610bb8565b90508060208402830185811115610c5757610c56610bf9565b5b835b81811015610c805780610c6c8882610c15565b845260208401935050602081019050610c59565b5050509392505050565b600082601f830112610c9f57610c9e610b42565b5b6002610cac848285610c2a565b91505092915050565b600067ffffffffffffffff821115610cd057610ccf610b58565b5b602082029050919050565b6000610cee610ce984610cb5565b610bb8565b90508060408402830185811115610d0857610d07610bf9565b5b835b81811015610d315780610d1d8882610c8a565b845260208401935050604081019050610d0a565b5050509392505050565b600082601f830112610d5057610d4f610b42565b5b6002610d5d848285610cdb565b91505092915050565b600067ffffffffffffffff821115610d8157610d80610b58565b5b602082029050919050565b6000610d9f610d9a84610d66565b610bb8565b90508060208402830185811115610db957610db8610bf9565b5b835b81811015610de25780610dce8882610c15565b845260208401935050602081019050610dbb565b5050509392505050565b600082601f830112610e0157610e00610b42565b5b6001610e0e848285610d8c565b91505092915050565b6000806000806101208587031215610e3257610e31610b3d565b5b6000610e4087828801610c8a565b9450506040610e5187828801610d3b565b93505060c0610e6287828801610c8a565b925050610100610e7487828801610dec565b91505092959194509250565b60008115159050919050565b610e9581610e80565b82525050565b6000602082019050610eb06000830184610e8c565b9291505056fea2646970667358221220c79ec95c90a7d8cce517bd82f71e8479c3363e6615846d2098e9edaa21a4d04464736f6c634300081c0033",
  "linkReferences": {},
  "deployedLinkReferences": {}
}